:100000000C9463000C948B000C948B000C948B006C
:100010000C948B000C948B000C948B000C948B0034
:100020000C948B000C948B000C948B000C948B0024
:100030000C948B000C948B000C948B000C948B0014
:100040000C948C020C948B000C94AF030C948B00DA
:100050000C948B000C948B000C948B000C948B00F4
:100060000C948B000C948B000000000024002700EF
:100070002A0000000000250028002B0000000000DE
:1000800023002600290004040404040404040202DA
:100090000202020203030303030301020408102007
:1000A0004080010204081020010204081020000012
:1000B0000007000201000003040600000000000029
:1000C00000004802340511241FBECFEFD8E0DEBF88
:1000D000CDBF11E0A0E0B1E0EEE6FCE002C005908B
:1000E0000D92A431B107D9F711E0A4E1B1E001C04C
:1000F0001D92A73CB107E1F710E0C6ECD0E004C0C8
:100100002297FE010E943106C23CD107C9F70E9426
:100110006E050C9435060C9400000F931F938C0110
:10012000FC01848160E00E94620381E090E00E9413
:10013000FE02F801848161E00E94620381E090E0A8
:100140000E94FE02F801848160E00E94620384E65E
:1001500090E00E94FE021F910F910895CF92DF92CE
:10016000EF92FF920F931F93CF93DF93D82EC92E58
:10017000282F392FC9018C01C0E0D0E0E62EFF24E2
:10018000F801858161E00E944203B7010C2E02C094
:10019000759567950A94E2F76170F80185810E9470
:1001A000620321960F5F1F4FC830D10549F78D2D8F
:1001B0009C2D0E948D00DF91CF911F910F91FF9098
:1001C000EF90DF90CF900895CF92DF92EF92FF9261
:1001D0000F931F93CF93DF93D82EC92E282F392F3B
:1001E000C9018C01C0E0D0E0E62EFF24F801858132
:1001F00061E00E944203B7010C2E02C0759567951D
:100200000A94E2F76170F80185810E9462032196E9
:100210000F5F1F4FC430D10549F78D2D9C2D0E94D3
:100220008D00DF91CF911F910F91FF90EF90DF90A4
:10023000CF9008951F93CF93DF93EC01162F8A81FF
:10024000642F0E9462038B818F3F19F060E00E944F
:1002500062038D8584FF05C0CE01612F0E94AE0030
:100260000EC0612F70E084E0759567958A95E1F77F
:10027000CE010E94E400CE01612F0E94E400DF91D4
:10028000CF911F91089541E00E941A01089540E026
:100290000E941A010895FC016685862F8460868776
:1002A0006C60CF010E944701089561E00E94470100
:1002B00080ED97E00E94FE020895CF93DF93EC015A
:1002C000423018F08D8588608D87498B1A8A2223E9
:1002D00029F0413019F48D8584608D8780E593EC99
:1002E0000E94FE028A8160E00E9462038C8160E0CD
:1002F0000E9462038B818F3F19F060E00E946203CD
:100300006D8564FD1DC0CE0163E00E94E40084E9B8
:1003100091E10E94FE02CE0163E00E94E40084E9C4
:1003200091E10E94FE02CE0163E00E94E40086E9B2
:1003300090E00E94FE02CE0162E00E94E40016C03E
:100340006062CE010E94470184E991E10E94FE02B1
:100350006D856062CE010E94470186E990E00E94AF
:10036000FE026D856062CE010E9447016D8560626C
:10037000CE010E94470184E08E87CE010E944B018E
:10038000CE010E94550182E08F87CE0166E00E9477
:100390004701DF91CF9108956F927F928F92AF9234
:1003A000CF92EF920F931F93DF93CF93CDB7DEB72A
:1003B0003C01162F842FF301428323830483E582BB
:1003C000C682A78280869D8591879E8592879F851C
:1003D00093879889948761E00E944203F3018381A7
:1003E0008F3F19F061E00E944203F301848161E0D4
:1003F0000E944203112319F0F301158603C080E126
:10040000F3018587C30160E141E020E00E945D01C6
:10041000CF91DF911F910F91EF90CF90AF908F9080
:100420007F906F9008958F92AF92CF92EF920F933B
:100430001F93CF93DF93DC01362F542F722F102F91
:10044000AE2C8C2C84E091E011969C938E9300D07E
:1004500000D0EDB7FEB73196CDB7DEB71982118265
:1004600012821382CD0161E0432F2FEF052FE72E7B
:10047000C12E0E94CC010F900F900F900F90DF9132
:10048000CF911F910F91EF90CF90AF908F900895E3
:10049000CF92EF920F9384E191E06CE04BE025E086
:1004A00004E053E0E52E32E0C32E0E9413020F91C8
:1004B000EF90CF90089584EB91E00E94E5048823AB
:1004C000D1F064E670E080E090E00E94D40284E124
:1004D00091E00E94550109C084EB91E00E94F9046B
:1004E000682F84E191E00E94430184EB91E00E9437
:1004F000E504882389F7089584E191E060E142E012
:1005000020E00E945D0184EB91E040E855E260E06C
:1005100070E00E94EC0308951F920F920FB60F92A5
:1005200011242F933F938F939F93AF93BF93809109
:100530002B0190912C01A0912D01B0912E013091B1
:100540002F010196A11DB11D232F2D5F2D3720F006
:100550002D570196A11DB11D20932F0180932B01D2
:1005600090932C01A0932D01B0932E01809127012F
:1005700090912801A0912901B0912A010196A11D15
:10058000B11D8093270190932801A0932901B09376
:100590002A01BF91AF919F918F913F912F910F9021
:1005A0000FBE0F901F901895EF92FF920F931F931D
:1005B0007B018C018FB7F89440912B0150912C0155
:1005C00060912D0170912E018FBF2FB7F89480910B
:1005D0002B0190912C01A0912D01B0912E012FBFE4
:1005E000841B950BA60BB70BE816F9060A071B0729
:1005F00060F71F910F91FF90EF900895019739F0E8
:10060000880F991F880F991F02970197F1F7089596
:10061000789484B5826084BD84B5816084BD85B5DD
:10062000826085BD85B5816085BDEEE6F0E08081A4
:1006300081608083E1E8F0E0808182608083808156
:1006400081608083E0E8F0E0808181608083E1EB7D
:10065000F0E0808184608083E0EBF0E08081816065
:100660008083EAE7F0E0808184608083808182601B
:100670008083808181608083808180688083109204
:10068000C1000895282F30E0C90186569F4FFC0114
:1006900094912A573F4FF9018491882391F0E82FD4
:1006A000F0E0EE0FFF1FE859FF4FA591B4916623CC
:1006B00029F48C91909589238C9308958C91892BA2
:1006C0008C930895482F50E0CA0182559F4FFC013A
:1006D0002491CA0186569F4FFC0194914A575F4F5F
:1006E000FA0134913323D1F1222331F1233021F463
:1006F000809180008F7705C0243031F48091800094
:100700008F7D8093800018C0213019F484B58F77D5
:1007100004C0223021F484B58F7D84BD0DC0263005
:1007200021F48091B0008F7705C0273029F48091A3
:10073000B0008F7D8093B000E32FF0E0EE0FFF1F3D
:10074000EE58FF4FA591B491662329F48C919095B2
:1007500089238C9308958C91892B8C9308951F92F3
:100760000F920FB60F9211242F933F934F935F93E5
:100770006F937F938F939F93AF93BF93EF93FF9369
:100780004091C600E091B001F091B101CF01019616
:1007900060E870E00E94CB059C018091B2019091CD
:1007A000B3012817390739F0E05DFE4F40833093DD
:1007B000B1012093B001FF91EF91BF91AF919F9153
:1007C0008F917F916F915F914F913F912F910F90FA
:1007D0000FBE0F901F9018955F926F927F928F922D
:1007E0009F92AF92BF92CF92DF92EF92FF920F93C0
:1007F0001F93CF93DF93EC013A014B01413482E424
:1008000058078FE0680780E078070CF07FC060E849
:1008100074E88EE190E0A40193010E94000621504B
:10082000304040405040CA01B90122E030E040E091
:1008300050E00E94000659016A01A6019501209529
:1008400030954095509594E0220F331F441F551F5B
:100850009A95D1F760E074E284EF90E00E94000680
:10086000CA01B9012FEF30E040E050E00E94AC0532
:10087000A40193010E940006C90181509F4F1816E0
:1008800019061CF4522E5A9403C055245394521A3C
:1008900060E079E08DE390E0A40193010E940006FE
:1008A0002150304040405040CA01B90122E030E0C0
:1008B00040E050E00E94000620953095409550950C
:1008C00083E0220F331F441F551F8A95D1F760E044
:1008D00074E284EF90E00E940006CA01B9012FEF94
:1008E00030E040E050E00E94AC05A40193010E947A
:1008F0000006C90181509F4F181619061CF4822F5B
:10090000815002C081E0821B851500F5E885F985DC
:1009100081E090E00A8802C0880F991F0A94E2F7EC
:10092000808360E079E08DE390E0A40193010E9470
:1009300000062150304040405040CA01B90122E039
:1009400030E040E050E00E94000604C0E885F985F0
:1009500010829501EC81FD813083EE81FF8120833F
:10096000EA85FB85208141E050E0CA010E8402C087
:10097000880F991F0A94E2F7282B2083EA85FB85CC
:100980002081CA010F8402C0880F991F0A94E2F7E0
:10099000282B2083EA85FB858081088802C0440FCC
:1009A000551F0A94E2F7842B8083DF91CF911F912A
:1009B0000F91FF90EF90DF90CF90BF90AF909F90FE
:1009C0008F907F906F905F900895DC011296ED916B
:1009D000FC911397E058FF4F8191919180589F4F60
:1009E00020813181821B930B60E870E00E94CB056F
:1009F0000895CF93DF93DC011296ED91FC9113974C
:100A0000EF01CE57DF4F48815981E058FF4F808179
:100A10009181E058F0408417950719F42FEF3FEFCC
:100A20000CC0E40FF51F2081CA01019660E870E058
:100A30000E94CB059983888330E0C901DF91CF9173
:100A40000895FC01A085B18521898C9190E0022E4A
:100A500002C0959587950A94E2F780FFF6CF04844B
:100A6000F585E02D608308958EE091E09093B501C7
:100A70008093B40180E391E09093B7018093B60135
:100A800085EC90E09093B9018093B80184EC90E0FC
:100A90009093BB018093BA0180EC90E09093BD01EC
:100AA0008093BC0181EC90E09093BF018093BE01E4
:100AB00086EC90E09093C1018093C00184E0809324
:100AC000C20183E08093C30187E08093C40185E085
:100AD0008093C50181E08093C60108950E940803B8
:100AE0000E947C020E945B02FDCF0F931F93CF9365
:100AF000DF938C01EB0109C02196D801ED91FC91A7
:100B00000190F081E02DC801099568816623A1F765
:100B1000DF91CF911F910F910895EF92FF920F9364
:100B20001F93CF93DF938C017B01EA010CC0D701A7
:100B30006D917D01D801ED91FC910190F081E02D46
:100B4000C80109952197209791F7DF91CF911F91C7
:100B50000F91FF90EF900895629FD001739FF00175
:100B6000829FE00DF11D649FE00DF11D929FF00D3D
:100B7000839FF00D749FF00D659FF00D9927729F74
:100B8000B00DE11DF91F639FB00DE11DF91FBD01FF
:100B9000CF011124089597FB092E07260AD077FD6F
:100BA00004D049D006D000201AF4709561957F4F8B
:100BB0000895F6F7909581959F4F0895A1E21A2E1A
:100BC000AA1BBB1BFD010DC0AA1FBB1FEE1FFF1FF1
:100BD000A217B307E407F50720F0A21BB30BE40B41
:100BE000F50B661F771F881F991F1A9469F7609588
:100BF0007095809590959B01AC01BD01CF01089542
:100C000097FB092E05260ED057FD04D0D7DF0AD05A
:100C1000001C38F450954095309521953F4F4F4F2B
:100C20005F4F0895F6F790958095709561957F4F89
:100C30008F4F9F4F0895AA1BBB1B51E107C0AA1FEE
:100C4000BB1FA617B70710F0A61BB70B881F991F6D
:100C50005A95A9F780959095BC01CD010895EE0FA6
:0E0C6000FF1F0590F491E02D0994F894FFCF4A
:100C6E0000000000430175058D0500000000210500
:040C7E0075058D0566
:00000001FF
