:100000000C9462000C948A000C948A000C948A0070
:100010000C948A000C948A000C948A000C948A0038
:100020000C948A000C948A000C948A000C948A0028
:100030000C948A000C948A000C948A000C948A0018
:100040000C94D6030C948A000C9413010C948A002F
:100050000C948A000C948A000C948A000C948A00F8
:100060000C948A000C948A000000000024002700F1
:100070002A0000000000250028002B0000000000DE
:1000800023002600290004040404040404040202DA
:100090000202020203030303030301020408102007
:1000A0004080010204081020010204081020000012
:1000B0000007000201000003040600000000000029
:1000C00000005C0211241FBECFEFD8E0DEBFCDBF21
:1000D00011E0A0E0B1E0E6ECF9E002C005900D927D
:1000E000AA30B107D9F711E0AAE0B1E001C01D9232
:1000F000AA3AB107E1F710E0C4ECD0E004C02297BF
:10010000FE010E94DD04C23CD107C9F70E9496029D
:100110000C94E1040C94000082E00E94C400BC0135
:100120008EE891E04AE050E00E94BB0308958EE81B
:1001300091E040E855E260E070E00E94500182E00A
:1001400060E00E94A4000895282F30E0C90186567F
:100150009F4FFC0194912A573F4FF90184918823C6
:1001600091F0E82FF0E0EE0FFF1FE859FF4FA59147
:10017000B491662329F48C91909589238C930895EA
:100180008C91892B8C930895682F70E0CB01825558
:100190009F4FFC012491CB0186569F4FFC01449157
:1001A0006A577F4FFB019491992319F420E030E0C6
:1001B00038C0222331F1233021F4809180008F77E1
:1001C00005C0243031F4809180008F7D80938000C1
:1001D00018C0213019F484B58F7704C0223021F47F
:1001E00084B58F7D84BD0DC0263021F48091B00090
:1001F0008F7705C0273029F48091B0008F7D8093E0
:10020000B000892F90E0880F991F84589F4FFC0100
:10021000A591B4918C9120E030E0842311F021E08D
:1002200030E0C90108951F920F920FB60F9211246A
:100230002F933F934F935F936F937F938F939F93EE
:10024000AF93BF93EF93FF934091C600E0918A0173
:10025000F0918B01CF01019660E870E00E94770475
:100260009C0180918C0190918D012817390739F0FC
:10027000E65FFE4F408330938B0120938A01FF910C
:10028000EF91BF91AF919F918F917F916F915F910E
:100290004F913F912F910F900FBE0F901F90189587
:1002A0005F926F927F928F929F92AF92BF92CF9206
:1002B000DF92EF92FF920F931F93CF93DF93EC01A6
:1002C0003A014B01413482E458078FE0680780E02F
:1002D00078070CF07FC060E874E88EE190E0A4013C
:1002E00093010E94AC042150304040405040CA016C
:1002F000B90122E030E040E050E00E94AC04590136
:100300006A01A6019501209530954095509594E09D
:10031000220F331F441F551F9A95D1F760E074E2F6
:1003200084EF90E00E94AC04CA01B9012FEF30E0E5
:1003300040E050E00E945804A40193010E94AC04E4
:10034000C90181509F4F181619061CF4522E5A9459
:1003500003C055245394521A60E079E08DE390E095
:10036000A40193010E94AC04215030404040504011
:10037000CA01B90122E030E040E050E00E94AC0444
:10038000209530954095509583E0220F331F441FF0
:10039000551F8A95D1F760E074E284EF90E00E94E7
:1003A000AC04CA01B9012FEF30E040E050E00E94F8
:1003B0005804A40193010E94AC04C90181509F4FCD
:1003C000181619061CF4822F815002C081E0821B8E
:1003D000851500F5E885F98581E090E00A8802C07E
:1003E000880F991F0A94E2F7808360E079E08DE33B
:1003F00090E0A40193010E94AC04215030404040A1
:100400005040CA01B90122E030E040E050E00E94D3
:10041000AC0404C0E885F98510829501EC81FD816A
:100420003083EE81FF812083EA85FB85208141E0D6
:1004300050E0CA010E8402C0880F991F0A94E2F7A7
:10044000282B2083EA85FB852081CA010F8402C006
:10045000880F991F0A94E2F7282B2083EA85FB85F1
:100460008081088802C0440F551F0A94E2F7842B4C
:100470008083DF91CF911F910F91FF90EF90DF90DC
:10048000CF90BF90AF909F908F907F906F905F9034
:100490000895FC01A085B18521898C9190E0022E00
:1004A00002C0959587950A94E2F780FFF6CF048401
:1004B000F585E02D6083089584E091E090938F01AD
:1004C00080938E018AE091E0909391018093900156
:1004D00085EC90E0909393018093920184EC90E0FE
:1004E000909395018093940180EC90E09093970114
:1004F0008093960181EC90E090939901809398010C
:1005000086EC90E090939B0180939A0184E0809325
:100510009C0183E080939D0187E080939E0185E0AC
:1005200080939F0181E08093A00108950E941E04A2
:100530000E9497000E948C00FDCF0F931F93CF93D2
:10054000DF938C01EB0109C02196D801ED91FC915C
:100550000190F081E02DC801099568816623A1F71B
:10056000DF91CF911F910F910895EF92FF920F931A
:100570001F93CF93DF938C017B01EA010CC0D7015D
:100580006D917D01D801ED91FC910190F081E02DFC
:10059000C80109952197209791F7DF91CF911F917D
:1005A0000F91FF90EF9008952F923F924F925F929C
:1005B0006F927F928F929F92AF92BF92CF92DF9273
:1005C000EF92FF920F931F93DF93CF93CDB7DEB7D8
:1005D000A0970FB6F894DEBF0FBECDBF1C016A0115
:1005E0007B01411551056105710549F440E350E077
:1005F00060E070E020E030E00E946E0356C0882486
:1006000099245401422E55246624772401E010E0F9
:100610000C0F1D1F080D191DC701B601A301920182
:100620000E948A04F80160830894811C911CA11C1B
:10063000B11CC701B601A30192010E948A04C9013D
:10064000DA016C017D01C114D104E104F104F1F679
:1006500081E0E82EF12CEC0EFD1EE80CF91C3E01A9
:100660000894611C711CD501C4010197A109B1094D
:100670006C01C818D90816C0F601EE0DFF1D4081A7
:100680004A3010F4405D01C0495C552747FD509544
:10069000652F752FC10120E030E00E946E030894A1
:1006A000E108F1086E147F0439F7A0960FB6F894AC
:1006B000DEBF0FBECDBFCF91DF911F910F91FF9095
:1006C000EF90DF90CF90BF90AF909F908F907F90F2
:1006D0006F905F904F903F902F900895EF92FF9210
:1006E0000F931F93CF93DF93EC017A018B012115B8
:1006F000310541F4E881F9810190F081E02D642F0A
:1007000009951BC02A303105B1F477FF10C04DE2C6
:1007100050E060E070E020E030E00E946E03109551
:100720000095F094E094E11CF11C011D111DCE0117
:10073000B801A7012AE00E94D402DF91CF911F9156
:100740000F91FF90EF9008950F931F938C014DE050
:1007500050E060E070E020E030E00E946E03C801ED
:100760004AE050E060E070E020E030E00E946E037C
:100770001F910F910895CF92DF92EF92FF920F9306
:100780001F938C016B019A01EE24D7FCE094FE2CA0
:10079000B701A6010E946E03C8010E94A4031F9125
:1007A0000F91FF90EF90DF90CF9008951F920F92DE
:1007B0000FB60F9211242F933F938F939F93AF9374
:1007C000BF938091A5019091A601A091A701B0913E
:1007D000A8013091A9010196A11DB11D232F2D5F04
:1007E0002D3720F02D570196A11DB11D2093A90191
:1007F0008093A5019093A601A093A701B093A801AF
:100800008091A1019091A201A091A301B091A401B6
:100810000196A11DB11D8093A1019093A201A09307
:10082000A301B093A401BF91AF919F918F913F918C
:100830002F910F900FBE0F901F901895789484B54C
:10084000826084BD84B5816084BD85B5826085BDCC
:1008500085B5816085BDEEE6F0E0808181608083B2
:10086000E1E8F0E080818260808380818160808324
:10087000E0E8F0E0808181608083E1EBF0E080815E
:1008800084608083E0EBF0E0808181608083EAE730
:10089000F0E08081846080838081826080838081B9
:1008A000816080838081806880831092C100089578
:1008B000629FD001739FF001829FE00DF11D649F44
:1008C000E00DF11D929FF00D839FF00D749FF00DD0
:1008D000659FF00D9927729FB00DE11DF91F639F71
:1008E000B00DE11DF91FBD01CF011124089597FB43
:1008F000092E07260AD077FD04D049D006D0002063
:100900001AF4709561957F4F0895F6F7909581954B
:100910009F4F0895A1E21A2EAA1BBB1BFD010DC01B
:10092000AA1FBB1FEE1FFF1FA217B307E407F5079F
:1009300020F0A21BB30BE40BF50B661F771F881F7B
:10094000991F1A9469F760957095809590959B0111
:10095000AC01BD01CF01089597FB092E05260ED0ED
:1009600057FD04D0D7DF0AD0001C38F450954095CD
:10097000309521953F4F4F4F5F4F0895F6F7909573
:100980008095709561957F4F8F4F9F4F0895AA1B5B
:10099000BB1B51E107C0AA1FBB1FA617B70710F06A
:1009A000A61BB70B881F991F5A95A9F7809590959C
:1009B000BC01CD010895EE0FFF1F0590F491E02DCD
:0609C0000994F894FFCF3A
:0A09C6000000000049029D02B50286
:00000001FF
