:100000000C9462000C948A000C948A000C948A0070
:100010000C948A000C948A000C948A000C948A0038
:100020000C948A000C948A000C948A000C948A0028
:100030000C948A000C948A000C948A000C948A0018
:100040000C9424030C948A000C9427010C948A00CD
:100050000C948A000C948A000C948A000C948A00F8
:100060000C948A000C948A000000000024002700F1
:100070002A0000000000250028002B0000000000DE
:1000800023002600290004040404040404040202DA
:100090000202020203030303030301020408102007
:1000A0004080010204081020010204081020000012
:1000B0000007000201000003040600000000000029
:1000C0000000AC0211241FBECFEFD8E0DEBFCDBFD1
:1000D00011E0A0E0B1E0E2E6F8E002C005900D9288
:1000E000AA30B107D9F711E0AAE0B1E001C01D9232
:1000F000AC3AB107E1F710E0C4ECD0E004C02297BD
:10010000FE010E942B04C23CD107C9F70E94E602FF
:100110000C942F040C94000080E991E00E945D0291
:100120008823D1F080E991E00E94710290930B0145
:1001300080930A018834910521F48DE061E00E94EA
:10014000DA0080910A0190910B018C34910521F421
:100150008DE060E00E94DA00089580E991E040E8D7
:1001600055E260E070E00E9464018DE061E00E9471
:10017000BA000895282F30E0C90186569F4FFC0130
:1001800094912A573F4FF9018491882391F0E82FE9
:10019000F0E0EE0FFF1FE859FF4FA591B4916623E1
:1001A00029F48C91909589238C9308958C91892BB7
:1001B0008C930895482F50E0CA0182559F4FFC014F
:1001C0002491CA0186569F4FFC0194914A575F4F74
:1001D000FA0134913323D1F1222331F1233021F478
:1001E000809180008F7705C0243031F480918000A9
:1001F0008F7D8093800018C0213019F484B58F77EB
:1002000004C0223021F484B58F7D84BD0DC026301A
:1002100021F48091B0008F7705C0273029F48091B8
:10022000B0008F7D8093B000E32FF0E0EE0FFF1F52
:10023000EE58FF4FA591B491662329F48C919095C7
:1002400089238C9308958C91892B8C9308951F9208
:100250000F920FB60F9211242F933F934F935F93FA
:100260006F937F938F939F93AF93BF93EF93FF937E
:100270004091C600E0918C01F0918D01CF01019673
:1002800060E870E00E94C5039C0180918E0190910E
:100290008F012817390739F0E45FFE4F4083309310
:1002A0008D0120938C01FF91EF91BF91AF919F91B0
:1002B0008F917F916F915F914F913F912F910F900F
:1002C0000FBE0F901F9018955F926F927F928F9242
:1002D0009F92AF92BF92CF92DF92EF92FF920F93D5
:1002E0001F93CF93DF93EC013A014B01413482E439
:1002F00058078FE0680780E078070CF07FC060E85F
:1003000074E88EE190E0A40193010E94FA03215069
:10031000304040405040CA01B90122E030E040E0A6
:1003200050E00E94FA0359016A01A6019501209547
:1003300030954095509594E0220F331F441F551F70
:100340009A95D1F760E074E284EF90E00E94FA039E
:10035000CA01B9012FEF30E040E050E00E94A6034F
:10036000A40193010E94FA03C90181509F4F1816FE
:1003700019061CF4522E5A9403C055245394521A51
:1003800060E079E08DE390E0A40193010E94FA031C
:100390002150304040405040CA01B90122E030E0D5
:1003A00040E050E00E94FA0320953095409550952A
:1003B00083E0220F331F441F551F8A95D1F760E059
:1003C00074E284EF90E00E94FA03CA01B9012FEFB2
:1003D00030E040E050E00E94A603A40193010E9497
:1003E000FA03C90181509F4F181619061CF4822F79
:1003F000815002C081E0821B851500F5E885F985F2
:1004000081E090E00A8802C0880F991F0A94E2F701
:10041000808360E079E08DE390E0A40193010E9485
:10042000FA032150304040405040CA01B90122E057
:1004300030E040E050E00E94FA0304C0E885F9850E
:1004400010829501EC81FD813083EE81FF81208354
:10045000EA85FB85208141E050E0CA010E8402C09C
:10046000880F991F0A94E2F7282B2083EA85FB85E1
:100470002081CA010F8402C0880F991F0A94E2F7F5
:10048000282B2083EA85FB858081088802C0440FE1
:10049000551F0A94E2F7842B8083DF91CF911F913F
:1004A0000F91FF90EF90DF90CF90BF90AF909F9013
:1004B0008F907F906F905F900895DC011296ED9180
:1004C000FC911397E058FF4F8191919180589F4F75
:1004D00020813181821B930B60E870E00E94C5038C
:1004E0000895CF93DF93DC011296ED91FC91139761
:1004F000EF01CE57DF4F48815981E058FF4F80818F
:100500009181E058F0408417950719F42FEF3FEFE1
:100510000CC0E40FF51F2081CA01019660E870E06D
:100520000E94C5039983888330E0C901DF91CF9190
:100530000895FC01A085B18521898C9190E0022E5F
:1005400002C0959587950A94E2F780FFF6CF048460
:10055000F585E02D6083089584E091E0909391010A
:10056000809390018CE091E09093930180939201AD
:1005700085EC90E0909395018093940184EC90E059
:10058000909397018093960180EC90E0909399016D
:100590008093980181EC90E090939B0180939A0165
:1005A00086EC90E090939D0180939C0184E0809381
:1005B0009E0183E080939F0187E08093A00185E006
:1005C0008093A10181E08093A20108950E946C03B1
:1005D0000E94AD000E948C00FDCF0F931F93CF931C
:1005E000DF938C01EB0109C02196D801ED91FC91BC
:1005F0000190F081E02DC801099568816623A1F77B
:10060000DF91CF911F910F910895EF92FF920F9379
:100610001F93CF93DF938C017B01EA010CC0D701BC
:100620006D917D01D801ED91FC910190F081E02D5B
:10063000C80109952197209791F7DF91CF911F91DC
:100640000F91FF90EF9008951F920F920FB60F92A7
:1006500011242F933F938F939F93AF93BF938091D8
:10066000A7019091A801A091A901B091AA01309190
:10067000AB010196A11DB11D232F2D5F2D3720F059
:100680002D570196A11DB11D2093AB018093A701A9
:100690009093A801A093A901B093AA018091A3010E
:1006A0009091A401A091A501B091A6010196A11D70
:1006B000B11D8093A3019093A401A093A501B093D1
:1006C000A601BF91AF919F918F913F912F910F9074
:1006D0000FBE0F901F901895789484B5826084BDEA
:1006E00084B5816084BD85B5826085BD85B5816036
:1006F00085BDEEE6F0E0808181608083E1E8F0E096
:10070000808182608083808181608083E0E8F0E086
:10071000808181608083E1EBF0E080818460808370
:10072000E0EBF0E0808181608083EAE7F0E08081A7
:100730008460808380818260808380818160808307
:100740008081806880831092C1000895629FD001EB
:10075000739FF001829FE00DF11D649FE00DF11D7C
:10076000929FF00D839FF00D749FF00D659FF00D2B
:100770009927729FB00DE11DF91F639FB00DE11D18
:10078000F91FBD01CF011124089597FB092E0726FB
:100790000AD077FD04D049D006D000201AF4709515
:1007A00061957F4F0895F6F7909581959F4F089535
:1007B000A1E21A2EAA1BBB1BFD010DC0AA1FBB1F65
:1007C000EE1FFF1FA217B307E407F50720F0A21BD7
:1007D000B30BE40BF50B661F771F881F991F1A9444
:1007E00069F760957095809590959B01AC01BD016E
:1007F000CF01089597FB092E05260ED057FD04D092
:10080000D7DF0AD0001C38F45095409530952195DB
:100810003F4F4F4F5F4F0895F6F790958095709535
:1008200061957F4F8F4F9F4F0895AA1BBB1B51E1CE
:1008300007C0AA1FBB1FA617B70710F0A61BB70B50
:10084000881F991F5A95A9F780959095BC01CD01F5
:100850000895EE0FFF1F0590F491E02D0994F89490
:02086000FFCFC8
:0A086200000000009902ED020503FA
:00000001FF
