:100000000C9462000C948A000C948A000C948A0070
:100010000C948A000C948A000C948A000C948A0038
:100020000C948A000C948A000C948A000C948A0028
:100030000C948A000C948A000C948A000C948A0018
:100040000C9435010C948A000C946E020C948A0076
:100050000C948A000C948A000C948A000C948A00F8
:100060000C948A000C948A000000000024002700F1
:100070002A0000000000250028002B0000000000DE
:1000800023002600290004040404040404040202DA
:100090000202020203030303030301020408102007
:1000A0004080010204081020010204081020000012
:1000B0000007000201000003040600000000000029
:1000C0000000F30311241FBECFEFD8E0DEBFCDBF89
:1000D00011E0A0E0B1E0ECE6FCE002C005900D927A
:1000E000AC30B107D9F711E0ACE0B1E001C01D922E
:1000F000A43BB107E1F710E0C4ECD0E004C02297C4
:10010000FE010E943006C23CD107C9F70E942D04AF
:100110000C9434060C9400000DC081EA91E061E477
:1001200040E050E00E944E056CE271E080E090E01B
:100130000E947D0181EA91E00E94A403882369F373
:100140000895AF92BF92CF92DF92EF92FF920F93FA
:100150001F9381EA91E00E94A403882309F46DC0F3
:1001600081EA91E00E94B8039093130180931201F9
:1001700080E00E94E10164E070E00E94CA05709393
:100180000D0160930C016AE070E080E090E00E9455
:100190007D0181E00E94E10164E070E00E94CA05F7
:1001A00070930F0160930E0182E00E941F0200D045
:1001B00000D0AA2797FDA095BA2F2FEF30E040E09E
:1001C00050E0EDB7FEB72183328343835483BC01F3
:1001D000CD0120E030E040E050E0E1E0EE2EF12CF7
:1001E000012D112DAA24BB2465010E946205709384
:1001F0001101609310010F900F900F900F9060917C
:100200000C0170910D0181EA91E040E050E00E9404
:100210003B0560910E0170910F0181EA91E040E091
:1002200050E00E943B05609110017091110181EA3C
:1002300091E040E050E00E943B051F910F91FF903C
:10024000EF90DF90CF90BF90AF90089581EA91E05A
:1002500040E855E260E070E00E94AB0282E060E0BE
:100260000E94FF010E948C0008951F920F920FB60A
:100270000F9211242F933F938F939F93AF93BF932C
:100280008091180190911901A0911A01B0911B0160
:1002900030911C010196A11DB11D232F2D5F2D371B
:1002A00020F02D570196A11DB11D20931C018093B4
:1002B000180190931901A0931A01B0931B0180912A
:1002C000140190911501A0911601B09117010196AA
:1002D000A11DB11D8093140190931501A0931601E7
:1002E000B0931701BF91AF919F918F913F912F9143
:1002F0000F900FBE0F901F901895EF92FF920F93E3
:100300001F937B018C018FB7F89440911801509195
:10031000190160911A0170911B018FBF2FB7F894DA
:100320008091180190911901A0911A01B0911B01BF
:100330002FBF841B950BA60BB70BE816F9060A070F
:100340001B0760F71F910F91FF90EF90089578942D
:1003500084B5826084BD84B5816084BD85B58260CA
:1003600085BD85B5816085BDEEE6F0E08081816068
:100370008083E1E8F0E08081826080838081816019
:100380008083E0E8F0E0808181608083E1EBF0E051
:10039000808184608083E0EBF0E0808181608083F5
:1003A000EAE7F0E0808184608083808182608083DE
:1003B0008081816080838081806880831092C10009
:1003C00008958770909100019295990F990F907CF4
:1003D000982B90937C0080917A00806480937A00BF
:1003E00080917A0086FDFCCF2091780040917900C1
:1003F000942F80E030E0282B392BC9010895282F55
:1004000030E0C90186569F4FFC0194912A573F4F17
:10041000F9018491882391F0E82FF0E0EE0FFF1F9F
:10042000E859FF4FA591B491662329F48C919095DA
:1004300089238C9308958C91892B8C930895682F30
:1004400070E0CB0182559F4FFC012491CB01865671
:100450009F4FFC0144916A577F4FFB019491992370
:1004600019F420E030E038C0222331F1233021F4A8
:10047000809180008F7705C0243031F48091800016
:100480008F7D8093800018C0213019F484B58F7758
:1004900004C0223021F484B58F7D84BD0DC0263088
:1004A00021F48091B0008F7705C0273029F4809126
:1004B000B0008F7D8093B000892F90E0880F991F46
:1004C00084589F4FFC01A591B4918C9120E030E0BD
:1004D000842311F021E030E0C90108951F920F92AA
:1004E0000FB60F9211242F933F934F935F936F9307
:1004F0007F938F939F93AF93BF93EF93FF9340911D
:10050000C600E0919D01F0919E01CF01019660E847
:1005100070E00E94CA059C0180919F019091A0010A
:100520002817390739F0E35EFE4F408330939E0170
:1005300020939D01FF91EF91BF91AF919F918F917A
:100540007F916F915F914F913F912F910F900FBECF
:100550000F901F9018955F926F927F928F929F924B
:10056000AF92BF92CF92DF92EF92FF920F931F93C1
:10057000CF93DF93EC013A014B01413482E45807F9
:100580008FE0680780E078070CF07FC060E874E8CF
:100590008EE190E0A40193010E94FF0521503040BC
:1005A00040405040CA01B90122E030E040E050E054
:1005B0000E94FF0559016A01A60195012095309519
:1005C0004095509594E0220F331F441F551F9A9574
:1005D000D1F760E074E284EF90E00E94FF05CA0169
:1005E000B9012FEF30E040E050E00E94AB05A401DC
:1005F00093010E94FF05C90181509F4F18161906EB
:100600001CF4522E5A9403C055245394521A60E09D
:1006100079E08DE390E0A40193010E94FF05215051
:10062000304040405040CA01B90122E030E040E093
:1006300050E00E94FF05209530954095509583E04D
:10064000220F331F441F551F8A95D1F760E074E2D3
:1006500084EF90E00E94FF05CA01B9012FEF30E05E
:1006600040E050E00E94AB05A40193010E94FF0509
:10067000C90181509F4F181619061CF4822F815012
:1006800002C081E0821B851500F5E885F98581E0CF
:1006900090E00A8802C0880F991F0A94E2F78083CD
:1006A00060E079E08DE390E0A40193010E94FF05F2
:1006B0002150304040405040CA01B90122E030E0B2
:1006C00040E050E00E94FF0504C0E885F9851082F3
:1006D0009501EC81FD813083EE81FF812083EA85E5
:1006E000FB85208141E050E0CA010E8402C0880FE2
:1006F000991F0A94E2F7282B2083EA85FB85208145
:10070000CA010F8402C0880F991F0A94E2F7282BB0
:100710002083EA85FB858081088802C0440F551F2D
:100720000A94E2F7842B8083DF91CF911F910F9180
:10073000FF90EF90DF90CF90BF90AF909F908F9001
:100740007F906F905F900895DC011296ED91FC917F
:100750001397E058FF4F8191919180589F4F2081CE
:100760003181821B930B60E870E00E94CA050895F6
:10077000CF93DF93DC011296ED91FC911397EF017B
:10078000CE57DF4F48815981E058FF4F80819181DA
:10079000E058F0408417950719F42FEF3FEF0CC095
:1007A000E40FF51F2081CA01019660E870E00E9405
:1007B000CA059983888330E0C901DF91CF910895FC
:1007C000FC01A085B18521898C9190E0022E02C0A8
:1007D000959587950A94E2F780FFF6CF0484F58516
:1007E000E02D6083089585E091E09093A2018093CD
:1007F000A1018DE191E09093A4018093A30185EC88
:1008000090E09093A6018093A50184EC90E09093F2
:10081000A8018093A70180EC90E09093AA018093B7
:10082000A90181EC90E09093AC018093AB0186EC40
:1008300090E09093AE018093AD0184E08093AF018E
:1008400083E08093B00187E08093B10185E08093DD
:10085000B20181E08093B30108950E94A7010E9434
:1008600026010E94A100FDCF0F931F93CF93DF932A
:100870008C01EB0109C02196D801ED91FC9101900A
:10088000F081E02DC801099568816623A1F7DF9109
:10089000CF911F910F910895EF92FF920F931F93A5
:1008A000CF93DF938C017B01EA010CC0D7016D91DE
:1008B0007D01D801ED91FC910190F081E02DC801FE
:1008C00009952197209791F7DF91CF911F910F9173
:1008D000FF90EF9008952F923F924F925F926F9208
:1008E0007F928F929F92AF92BF92CF92DF92EF92C0
:1008F000FF920F931F93DF93CF93CDB7DEB7A097EF
:100900000FB6F894DEBF0FBECDBF1C016A017B019C
:10091000411551056105710549F440E350E060E07F
:1009200070E020E030E00E94050556C0882499243C
:100930005401422E55246624772401E010E00C0F68
:100940001D1F080D191DC701B601A30192010E94C8
:10095000DD05F80160830894811C911CA11CB11C69
:10096000C701B601A30192010E94DD05C901DA01A8
:100970006C017D01C114D104E104F104F1F681E0C0
:10098000E82EF12CEC0EFD1EE80CF91C3E0108943B
:10099000611C711CD501C4010197A109B1096C0149
:1009A000C818D90816C0F601EE0DFF1D40814A3067
:1009B00010F4405D01C0495C552747FD5095652FF7
:1009C000752FC10120E030E00E9405050894E10880
:1009D000F1086E147F0439F7A0960FB6F894DEBFC5
:1009E0000FBECDBFCF91DF911F910F91FF90EF9080
:1009F000DF90CF90BF90AF909F908F907F906F903F
:100A00005F904F903F902F900895EF92FF920F9339
:100A10001F93CF93DF93EC017A018B0121153105F0
:100A200041F4E881F9810190F081E02D642F09956E
:100A30001BC02A303105B1F477FF10C04DE250E001
:100A400060E070E020E030E00E9405051095009520
:100A5000F094E094E11CF11C011D111DCE01B801C0
:100A6000A7012AE00E946B04DF91CF911F910F91A3
:100A7000FF90EF900895EF92FF920F931F937B01E9
:100A80009A010027F7FC0095102FB801A7010E94DA
:100A900005051F910F91FF90EF900895EF92FF923F
:100AA0000F931F93E62E9A01FF24E7FCF0940F2D7D
:100AB0001F2DB801A7010E9405051F910F91FF90FE
:100AC000EF9008952F923F924F925F926F927F9294
:100AD0008F929F92AF92BF92CF92DF92EF92FF924E
:100AE0000F931F93DF93CF93CDB7DEB73B014C013C
:100AF00019012A016D897E898F89988D6A197B0970
:100B00008C099D09621A730A840A950AA40193014B
:100B10000E94AB05E218F30804091509A801970122
:100B20000E94FF052A0D3B1D4C1D5D1DB901CA0128
:100B3000CF91DF911F910F91FF90EF90DF90CF90B9
:100B4000BF90AF909F908F907F906F905F904F90ED
:100B50003F902F900895629FD001739FF001829F74
:100B6000E00DF11D649FE00DF11D929FF00D839F3C
:100B7000F00D749FF00D659FF00D9927729FB00DD9
:100B8000E11DF91F639FB00DE11DF91FBD01CF01EC
:100B90001124089597FB092E07260AD077FD04D06B
:100BA00049D006D000201AF4709561957F4F0895C2
:100BB000F6F7909581959F4F0895A1E21A2EAA1BF2
:100BC000BB1BFD010DC0AA1FBB1FEE1FFF1FA217FD
:100BD000B307E407F50720F0A21BB30BE40BF50BFA
:100BE000661F771F881F991F1A9469F76095709583
:100BF000809590959B01AC01BD01CF01089597FBB5
:100C0000092E05260ED057FD04D0D7DF0AD0001CD0
:100C100038F450954095309521953F4F4F4F5F4F99
:100C20000895F6F790958095709561957F4F8F4F59
:100C30009F4F0895AA1BBB1B51E107C0AA1FBB1FF2
:100C4000A617B70710F0A61BB70B881F991F5A9558
:100C5000A9F780959095BC01CD010895EE0FFF1F77
:0C0C60000590F491E02D0994F894FFCF6A
:0C0C6C000100000000E00334044C040010
:00000001FF
