:100000000C9434000C9451000C9451000C94510049
:100010000C9451000C9451000C9451000C9451001C
:100020000C9451000C9451000C9451000C9451000C
:100030000C9451000C9451000C9451000C945100FC
:100040000C9488000C9451000C9451000C945100B5
:100050000C9451000C9451000C9451000C945100DC
:100060000C9451000C94510011241FBECFEFD8E026
:10007000DEBFCDBF11E0A0E0B1E0E4E0F3E002C0FC
:1000800005900D92A230B107D9F711E0A2E0B1E0DE
:1000900001C01D92AE30B107E1F70E9452010C94ED
:1000A00080010C940000F999FECF1FBA72BD61BDAA
:1000B00040BD0FB6F894FA9AF99A0FBE08950895C4
:1000C00080E00E943401209103013091040164E03A
:1000D00070E00E945901462F82E091E0B9010E9430
:1000E00053008091030190910401019690930401C3
:1000F000809303018050924021F4109204011092E9
:10010000030164E670E080E090E00E94D000089572
:100110001F920F920FB60F9211242F933F938F933C
:100120009F93AF93BF938091090190910A01A09191
:100130000B01B0910C0130910D010196A11DB11D73
:10014000232F2D5F2D3720F02D570196A11DB11DB6
:1001500020930D018093090190930A01A0930B0154
:10016000B0930C018091050190910601A0910701C7
:10017000B09108010196A11DB11D809305019093D6
:100180000601A0930701B0930801BF91AF919F9121
:100190008F913F912F910F900FBE0F901F90189548
:1001A000EF92FF920F931F937B018C018FB7F8940E
:1001B0004091090150910A0160910B0170910C016D
:1001C0008FBF2FB7F8948091090190910A01A091F7
:1001D0000B01B0910C012FBF841B950BA60BB70B25
:1001E000E816F9060A071B0760F71F910F91FF90A9
:1001F000EF900895789484B5826084BD84B5816061
:1002000084BD85B5826085BD85B5816085BDEEE61E
:10021000F0E0808181608083E1E8F0E080818260AD
:100220008083808181608083E0E8F0E0808181606C
:100230008083E1EBF0E0808184608083E0EBF0E09C
:10024000808181608083EAE7F0E080818460808340
:1002500080818260808380818160808380818068EA
:1002600080831092C100089587709091000192954B
:10027000990F990F907C982B90937C0080917A0035
:10028000806480937A0080917A0086FDFCCF209173
:10029000780040917900942F80E030E0282B392BB2
:1002A000C90108950E94FA000E945F000E94600048
:1002B000FDCF97FB092E07260AD077FD04D00CD07E
:1002C00006D000201AF4709561957F4F0895F6F7D7
:1002D000909581959F4F0895AA1BBB1B51E107C0C4
:1002E000AA1FBB1FA617B70710F0A61BB70B881FC6
:1002F000991F5A95A9F780959095BC01CD01089555
:04030000F894FFCF9F
:020304000100F6
:00000001FF
