:100000000C9461000C947E000C947E000C947E0095
:100010000C947E000C947E000C947E000C947E0068
:100020000C947E000C947E000C947E000C947E0058
:100030000C947E000C947E000C947E000C947E0048
:100040000C94C1000C947E000C947E000C947E00F5
:100050000C947E000C947E000C947E000C947E0028
:100060000C947E000C947E00000000002400270009
:100070002A0000000000250028002B0000000000DE
:1000800023002600290004040404040404040202DA
:100090000202020203030303030301020408102007
:1000A0004080010204081020010204081020000012
:1000B0000007000201000003040600000000000029
:1000C000000011241FBECFEFD8E0DEBFCDBF11E08E
:1000D000A0E0B1E0EEE8F3E002C005900D92A4309C
:1000E000B107D9F711E0A4E0B1E001C01D92A3313E
:1000F000B107E1F70E94BE010C94C5010C94000009
:100100000E940901209106013091070140910801E8
:1001100050910901621B730B840B950B2091000118
:1001200030910101409102015091030126173707D8
:100130004807590700F50E94090160930601709372
:100140000701809308019093090180910401909127
:100150000501892B39F481E090E0909305018093AB
:10016000040104C010920501109204018DE0609119
:1001700004010E94710108958DE061E00E94510127
:1001800008951F920F920FB60F9211242F933F9351
:100190008F939F93AF93BF9380910E0190910F0126
:1001A000A0911001B0911101309112010196A11D91
:1001B000B11D232F2D5F2D3720F02D570196A11D46
:1001C000B11D2093120180930E0190930F01A09313
:1001D0001001B093110180910A0190910B01A0913F
:1001E0000C01B0910D010196A11DB11D80930A0172
:1001F00090930B01A0930C01B0930D01BF91AF91AF
:100200009F918F913F912F910F900FBE0F901F9054
:1002100018958FB7F89420910E0130910F014091FD
:100220001001509111018FBFB901CA01089578944E
:1002300084B5826084BD84B5816084BD85B58260EB
:1002400085BD85B5816085BDEEE6F0E08081816089
:100250008083E1E8F0E0808182608083808181603A
:100260008083E0E8F0E0808181608083E1EBF0E072
:10027000808184608083E0EBF0E080818160808316
:10028000EAE7F0E0808184608083808182608083FF
:100290008081816080838081806880831092C1002A
:1002A0000895282F30E0C90186569F4FFC01949194
:1002B0002A573F4FF9018491882391F0E82FF0E00D
:1002C000EE0FFF1FE859FF4FA591B491662329F463
:1002D0008C91909589238C9308958C91892B8C9384
:1002E0000895482F50E0CA0182559F4FFC01249188
:1002F000CA0186569F4FFC0194914A575F4FFA01FD
:1003000034913323D1F1222331F1233021F4809130
:1003100080008F7705C0243031F4809180008F7D7C
:100320008093800018C0213019F484B58F7704C001
:10033000223021F484B58F7D84BD0DC0263021F498
:100340008091B0008F7705C0273029F48091B000EC
:100350008F7D8093B000E32FF0E0EE0FFF1FEE588B
:10036000FF4FA591B491662329F48C919095892330
:100370008C9308958C91892B8C9308950E9417017A
:0E0380000E94BC000E948000FDCFF894FFCFC9
:04038E00E803000080
:00000001FF
