:100000000C9462000C948A000C948A000C948A0070
:100010000C948A000C948A000C948A000C948A0038
:100020000C948A000C948A000C948A000C948A0028
:100030000C948A000C948A000C948A000C948A0018
:100040000C947F040C948A000C94A9010C948A00EF
:100050000C948A000C948A000C948A000C948A00F8
:100060000C948A000C948A000000000024002700F1
:100070002A0000000000250028002B0000000000DE
:1000800023002600290004040404040404040202DA
:100090000202020203030303030301020408102007
:1000A0004080010204081020010204081020000012
:1000B0000007000201000003040600000000000029
:1000C0000000F20211241FBECFEFD8E0DEBFCDBF8B
:1000D00011E0A0E0B1E0E8E1FBE002C005900D9284
:1000E000AC32B107D9F711E0ACE2B1E001C01D922A
:1000F000A23DB107E1F710E0C4ECD0E004C02297C4
:10010000FE010E948605C23CD107C9F70E942C035C
:100110000C948A050C94000082E00E945A019C0114
:1001200090932F0180932E018091300190913101A5
:100130002817390789F12130310501F580912C010B
:1001400090912D01019690932D0180932C0186EBC7
:1001500091E060E071E00E94590486EB91E063E079
:1001600071E00E946A0360912C0170912D0186EB71
:1001700091E04AE050E00E94640406C086EB91E002
:100180006EE171E00E94590480912E0190912F013F
:10019000909331018093300180912C0190912D0139
:1001A00083709070892B19F48DE061E002C08DE0BE
:1001B00060E00E940D01089582E060E00E94ED0081
:1001C0008DE061E00E94ED0086EB91E040E855E2B1
:1001D00060E070E00E94E6010895282F30E0C90138
:1001E00086569F4FFC0194912A573F4FF901849105
:1001F000882391F0E82FF0E0EE0FFF1FE859FF4F42
:10020000A591B491662329F48C91909589238C93C0
:1002100008958C91892B8C930895482F50E0CA0142
:1002200082559F4FFC012491CA0186569F4FFC01C5
:1002300094914A575F4FFA0134913323D1F122232D
:1002400031F1233021F4809180008F7705C0243074
:1002500031F4809180008F7D8093800018C0213020
:1002600019F484B58F7704C0223021F484B58F7DD2
:1002700084BD0DC0263021F48091B0008F7705C079
:10028000273029F48091B0008F7D8093B000E32F58
:10029000F0E0EE0FFF1FEE58FF4FA591B4916623DB
:1002A00029F48C91909589238C9308958C91892BB6
:1002B0008C930895682F70E0CB0182559F4FFC010D
:1002C0002491CB0186569F4FFC0144916A577F4F82
:1002D000FB019491992319F420E030E038C02223E7
:1002E00031F1233021F4809180008F7705C02430D4
:1002F00031F4809180008F7D8093800018C0213080
:1003000019F484B58F7704C0223021F484B58F7D31
:1003100084BD0DC0263021F48091B0008F7705C0D8
:10032000273029F48091B0008F7D8093B000892F11
:1003300090E0880F991F84589F4FFC01A591B491BC
:100340008C9120E030E0842311F021E030E0C901FD
:1003500008951F920F920FB60F9211242F933F937F
:100360004F935F936F937F938F939F93AF93BF93BD
:10037000EF93FF934091C600E091B201F091B30179
:10038000CF01019660E870E00E9420059C018091F9
:10039000B4019091B5012817390739F0EE5CFE4F92
:1003A00040833093B3012093B201FF91EF91BF914D
:1003B000AF919F918F917F916F915F914F913F91FD
:1003C0002F910F900FBE0F901F9018955F926F9214
:1003D0007F928F929F92AF92BF92CF92DF92EF92D5
:1003E000FF920F931F93CF93DF93EC013A014B01E0
:1003F000413482E458078FE0680780E078070CF00A
:100400007FC060E874E88EE190E0A40193010E944F
:1004100055052150304040405040CA01B90122E00A
:1004200030E040E050E00E94550559016A01A60104
:100430009501209530954095509594E0220F331FFB
:10044000441F551F9A95D1F760E074E284EF90E065
:100450000E945505CA01B9012FEF30E040E050E09D
:100460000E940105A40193010E945505C901815014
:100470009F4F181619061CF4522E5A9403C0552487
:100480005394521A60E079E08DE390E0A401930167
:100490000E9455052150304040405040CA01B901EA
:1004A00022E030E040E050E00E9455052095309574
:1004B0004095509583E0220F331F441F551F8A95A6
:1004C000D1F760E074E284EF90E00E945505CA0124
:1004D000B9012FEF30E040E050E00E940105A40197
:1004E00093010E945505C90181509F4F18161906A6
:1004F0001CF4822F815002C081E0821B851500F51B
:10050000E885F98581E090E00A8802C0880F991F8C
:100510000A94E2F7808360E079E08DE390E0A40143
:1005200093010E9455052150304040405040CA017F
:10053000B90122E030E040E050E00E94550504C0DF
:10054000E885F98510829501EC81FD813083EE818B
:10055000FF812083EA85FB85208141E050E0CA01CC
:100560000E8402C0880F991F0A94E2F7282B20837B
:10057000EA85FB852081CA010F8402C0880F991F7C
:100580000A94E2F7282B2083EA85FB85808108887E
:1005900002C0440F551F0A94E2F7842B8083DF9139
:1005A000CF911F910F91FF90EF90DF90CF90BF9070
:1005B000AF909F908F907F906F905F900895FC0117
:1005C000A085B18521898C9190E0022E02C095957D
:1005D00087950A94E2F780FFF6CF0484F585E02D35
:1005E0006083089586E291E09093B7018093B6010D
:1005F00082E391E09093B9018093B80185EC90E09B
:100600009093BB018093BA0184EC90E09093BD017C
:100610008093BC0180EC90E09093BF018093BE0179
:1006200081EC90E09093C1018093C00186EC90E052
:100630009093C3018093C20184E08093C40183E05E
:100640008093C50187E08093C60185E08093C70150
:1006500081E08093C80108950E94C7040E94DC00D5
:100660000E948C00FDCF0F931F93CF93DF938C01DB
:10067000EB0109C02196D801ED91FC910190F08128
:10068000E02DC801099568816623A1F7DF91CF911C
:100690001F910F910895EF92FF920F931F93CF93A5
:1006A000DF938C017B01EA010CC0D7016D917D01C4
:1006B000D801ED91FC910190F081E02DC8010995E0
:1006C0002197209791F7DF91CF911F910F91FF9084
:1006D000EF900895DC01ED91FC910280F381E02D13
:1006E000099508952F923F924F925F926F927F9259
:1006F0008F929F92AF92BF92CF92DF92EF92FF9232
:100700000F931F93DF93CF93CDB7DEB7A0970FB6AC
:10071000F894DEBF0FBECDBF1C016A017B014115FD
:1007200051056105710549F440E350E060E070E077
:1007300020E030E00E940C0456C088249924540123
:10074000422E55246624772401E010E00C0F1D1F73
:10075000080D191DC701B601A30192010E943305BE
:10076000F80160830894811C911CA11CB11CC70175
:10077000B601A30192010E943305C901DA016C019F
:100780007D01C114D104E104F104F1F681E0E82E09
:10079000F12CEC0EFD1EE80CF91C3E010894611CC6
:1007A000711CD501C4010197A109B1096C01C818D8
:1007B000D90816C0F601EE0DFF1D40814A3010F435
:1007C000405D01C0495C552747FD5095652F752F49
:1007D000C10120E030E00E940C040894E108F10817
:1007E0006E147F0439F7A0960FB6F894DEBF0FBEE3
:1007F000CDBFCF91DF911F910F91FF90EF90DF90D0
:10080000CF90BF90AF909F908F907F906F905F90B0
:100810004F903F902F900895EF92FF920F931F9368
:10082000CF93DF93EC017A018B012115310541F45F
:10083000E881F9810190F081E02D642F09951BC0BA
:100840002A303105B1F477FF10C04DE250E060E08E
:1008500070E020E030E00E940C0410950095F094C8
:10086000E094E11CF11C011D111DCE01B801A7018E
:100870002AE00E947203DF91CF911F910F91FF90A8
:10088000EF9008950F931F938C014DE050E060E0CE
:1008900070E020E030E00E940C04C8014AE050E023
:1008A00060E070E020E030E00E940C041F910F91A6
:1008B00008950F931F938C010E946A03C8010E9440
:1008C00042041F910F910895CF92DF92EF92FF9211
:1008D0000F931F938C016B019A01EE24D7FCE094D7
:1008E000FE2CB701A6010E940C04C8010E9442041C
:1008F0001F910F91FF90EF90DF90CF9008951F927E
:100900000F920FB60F9211242F933F938F939F93C3
:10091000AF93BF938091CD019091CE01A091CF0173
:10092000B091D0013091D1010196A11DB11D232FAD
:100930002D5F2D3720F02D570196A11DB11D20935D
:10094000D1018093CD019093CE01A093CF01B093BC
:10095000D0018091C9019091CA01A091CB01B091C1
:10096000CC010196A11DB11D8093C9019093CA01CC
:10097000A093CB01B093CC01BF91AF919F918F9188
:100980003F912F910F900FBE0F901F901895789464
:1009900084B5826084BD84B5816084BD85B5826084
:1009A00085BD85B5816085BDEEE6F0E08081816022
:1009B0008083E1E8F0E080818260808380818160D3
:1009C0008083E0E8F0E0808181608083E1EBF0E00B
:1009D000808184608083E0EBF0E0808181608083AF
:1009E000EAE7F0E080818460808380818260808398
:1009F0008081816080838081806880831092C100C3
:100A00000895629FD001739FF001829FE00DF11D58
:100A1000649FE00DF11D929FF00D839FF00D749F78
:100A2000F00D659FF00D9927729FB00DE11DF91F24
:100A3000639FB00DE11DF91FBD01CF011124089581
:100A400097FB092E07260AD077FD04D049D006D09F
:100A500000201AF4709561957F4F0895F6F79095F0
:100A600081959F4F0895A1E21A2EAA1BBB1BFD0181
:100A70000DC0AA1FBB1FEE1FFF1FA217B307E4077D
:100A8000F50720F0A21BB30BE40BF50B661F771FD5
:100A9000881F991F1A9469F76095709580959095B5
:100AA0009B01AC01BD01CF01089597FB092E0526DE
:100AB0000ED057FD04D0D7DF0AD0001C38F4509573
:100AC0004095309521953F4F4F4F5F4F0895F6F772
:100AD00090958095709561957F4F8F4F9F4F0895AA
:100AE000AA1BBB1B51E107C0AA1FBB1FA617B70754
:100AF00010F0A61BB70B881F991F5A95A9F7809570
:100B00009095BC01CD010895EE0FFF1F0590F49163
:080B1000E02D0994F894FFCFD9
:100B18006F6E006E756D626572206F662062757407
:100B2800746F6E207075736865733A2020006F6665
:0C0B3800660000000000DF0233034B03E6
:00000001FF
