:100000000C9461000C947E000C947E000C947E0095
:100010000C947E000C947E000C947E000C947E0068
:100020000C947E000C947E000C947E000C947E0058
:100030000C947E000C947E000C947E000C947E0048
:100040000C94E5000C947E000C947E000C947E00D1
:100050000C947E000C947E000C947E000C947E0028
:100060000C947E000C947E00000000002400270009
:100070002A0000000000250028002B0000000000DE
:1000800023002600290004040404040404040202DA
:100090000202020203030303030301020408102007
:1000A0004080010204081020010204081020000012
:1000B0000007000201000003040600000000000029
:1000C000000011241FBECFEFD8E0DEBFCDBF11E08E
:1000D000A0E0B1E0EEE0F4E002C005900D92A031A6
:1000E000B107D9F711E0A0E1B1E001C01D92A9313B
:1000F000B107E1F70E94FE010C9405020C94000088
:100100000F931F93CF93DF93C2E0D1E000E010E0A4
:1001100015C0888161E00E94B10160910001709179
:100120000101882777FD8095982F0E942D018881F5
:1001300060E00E94B1010F5F1F4F229680910E0177
:1001400090910F010817190724F38C01EC01CC0FD3
:10015000DD1FC050DF4F13C0888161E00E94B101F4
:100160006091000170910101882777FD8095982F9B
:100170000E942D01888160E00E94B1012297015008
:10018000104017FFE9CFDF91CF911F910F91089594
:100190000F931F93CF93DF9302E011E0C0E0D0E014
:1001A00008C0F801808161E00E94910121960E5FF4
:1001B0001F4F80910E0190910F01C817D9078CF342
:1001C000DF91CF911F910F9108951F920F920FB65B
:1001D0000F9211242F933F938F939F93AF93BF93CD
:1001E0008091140190911501A0911601B091170111
:1001F000309118010196A11DB11D232F2D5F2D37C0
:1002000020F02D570196A11DB11D20931801809358
:10021000140190931501A0931601B09317018091DA
:10022000100190911101A0911201B091130101965A
:10023000A11DB11D8093100190931101A093120193
:10024000B0931301BF91AF919F918F913F912F91E7
:100250000F900FBE0F901F901895EF92FF920F9383
:100260001F937B018C018FB7F8944091140150913A
:10027000150160911601709117018FBF2FB7F89487
:100280008091140190911501A0911601B091170170
:100290002FBF841B950BA60BB70BE816F9060A07B0
:1002A0001B0760F71F910F91FF90EF9008957894CE
:1002B00084B5826084BD84B5816084BD85B582606B
:1002C00085BD85B5816085BDEEE6F0E08081816009
:1002D0008083E1E8F0E080818260808380818160BA
:1002E0008083E0E8F0E0808181608083E1EBF0E0F2
:1002F000808184608083E0EBF0E080818160808396
:10030000EAE7F0E08081846080838081826080837E
:100310008081816080838081806880831092C100A9
:100320000895282F30E0C90186569F4FFC01949113
:100330002A573F4FF9018491882391F0E82FF0E08C
:10034000EE0FFF1FE859FF4FA591B491662329F4E2
:100350008C91909589238C9308958C91892B8C9303
:100360000895482F50E0CA0182559F4FFC01249107
:10037000CA0186569F4FFC0194914A575F4FFA017C
:1003800034913323D1F1222331F1233021F48091B0
:1003900080008F7705C0243031F4809180008F7DFC
:1003A0008093800018C0213019F484B58F7704C081
:1003B000223021F484B58F7D84BD0DC0263021F418
:1003C0008091B0008F7705C0273029F48091B0006C
:1003D0008F7D8093B000E32FF0E0EE0FFF1FEE580B
:1003E000FF4FA591B491662329F48C9190958923B0
:1003F0008C9308958C91892B8C9308950E945701BA
:0E0400000E94C8000E948000FDCFF894FFCF3C
:10040E006400020007000400060005000300060059
:00000001FF
