:100000000C9462000C948A000C948A000C948A0070
:100010000C948A000C948A000C948A000C948A0038
:100020000C948A000C948A000C948A000C948A0028
:100030000C948A000C948A000C948A000C948A0018
:100040000C943F030C948A000C9442010C948A0097
:100050000C948A000C948A000C948A000C948A00F8
:100060000C948A000C948A000000000024002700F1
:100070002A0000000000250028002B0000000000DE
:1000800023002600290004040404040404040202DA
:100090000202020203030303030301020408102007
:1000A0004080010204081020010204081020000012
:1000B0000007000201000003040600000000000029
:1000C0000000C70211241FBECFEFD8E0DEBFCDBFB6
:1000D00011E0A0E0B1E0E8E9F8E002C005900D927F
:1000E000AA30B107D9F711E0AAE0B1E001C01D9232
:1000F000AA3AB107E1F710E0C4ECD0E004C02297BF
:10010000FE010E944604C23CD107C9F70E940103C8
:100110000C944A040C9400001F938EE891E00E9416
:100120007802882369F18EE891E00E948C02833680
:100130009105A9F0843691053CF48136910559F07A
:1001400082369105A9F409C08436910551F08536AF
:10015000910571F408C082E007C083E005C084E027
:1001600003C085E001C086E061E00E94F50008C0A0
:1001700012E0812F60E00E94F5001F5F1730C9F781
:100180001F9108951F938EE891E040E855E260E0EA
:1001900070E00E947F0112E0812F61E00E94D50093
:1001A0001F5F1730C9F71F910895282F30E0C9014C
:1001B00086569F4FFC0194912A573F4FF901849135
:1001C000882391F0E82FF0E0EE0FFF1FE859FF4F72
:1001D000A591B491662329F48C91909589238C93F1
:1001E00008958C91892B8C930895482F50E0CA0173
:1001F00082559F4FFC012491CA0186569F4FFC01F6
:1002000094914A575F4FFA0134913323D1F122235D
:1002100031F1233021F4809180008F7705C02430A4
:1002200031F4809180008F7D8093800018C0213050
:1002300019F484B58F7704C0223021F484B58F7D02
:1002400084BD0DC0263021F48091B0008F7705C0A9
:10025000273029F48091B0008F7D8093B000E32F88
:10026000F0E0EE0FFF1FEE58FF4FA591B49166230B
:1002700029F48C91909589238C9308958C91892BE6
:100280008C9308951F920F920FB60F9211242F9303
:100290003F934F935F936F937F938F939F93AF930E
:1002A000BF93EF93FF934091C600E0918A01F091D4
:1002B0008B01CF01019660E870E00E94E0039C0191
:1002C00080918C0190918D012817390739F0E65FF4
:1002D000FE4F408330938B0120938A01FF91EF9171
:1002E000BF91AF919F918F917F916F915F914F914E
:1002F0003F912F910F900FBE0F901F9018955F9216
:100300006F927F928F929F92AF92BF92CF92DF9225
:10031000EF92FF920F931F93CF93DF93EC013A017B
:100320004B01413482E458078FE0680780E078078A
:100330000CF07FC060E874E88EE190E0A4019301C6
:100340000E9415042150304040405040CA01B9017C
:1003500022E030E040E050E00E94150459016A01BB
:10036000A6019501209530954095509594E0220F77
:10037000331F441F551F9A95D1F760E074E284EF54
:1003800090E00E941504CA01B9012FEF30E040E06F
:1003900050E00E94C103A40193010E941504C90109
:1003A00081509F4F181619061CF4522E5A9403C000
:1003B00055245394521A60E079E08DE390E0A40153
:1003C00093010E9415042150304040405040CA0122
:1003D000B90122E030E040E050E00E941504209591
:1003E00030954095509583E0220F331F441F551FD1
:1003F0008A95D1F760E074E284EF90E00E941504E2
:10040000CA01B9012FEF30E040E050E00E94C10383
:10041000A40193010E941504C90181509F4F181631
:1004200019061CF4822F815002C081E0821B8515C1
:1004300000F5E885F98581E090E00A8802C0880F20
:10044000991F0A94E2F7808360E079E08DE390E001
:10045000A40193010E9415042150304040405040B7
:10046000CA01B90122E030E040E050E00E941504EA
:1004700004C0E885F98510829501EC81FD81308307
:10048000EE81FF812083EA85FB85208141E050E0F9
:10049000CA010E8402C0880F991F0A94E2F7282B24
:1004A0002083EA85FB852081CA010F8402C0880F62
:1004B000991F0A94E2F7282B2083EA85FB85808127
:1004C000088802C0440F551F0A94E2F7842B8083EA
:1004D000DF91CF911F910F91FF90EF90DF90CF9020
:1004E000BF90AF909F908F907F906F905F90089596
:1004F000DC011296ED91FC911397E058FF4F81912A
:10050000919180589F4F20813181821B930B60E82D
:1005100070E00E94E0030895CF93DF93DC01129610
:10052000ED91FC911397EF01CE57DF4F4881598130
:10053000E058FF4F80819181E058F0408417950783
:1005400019F42FEF3FEF0CC0E40FF51F2081CA0113
:10055000019660E870E00E94E0039983888330E0B0
:10056000C901DF91CF910895FC01A085B185218952
:100570008C9190E0022E02C0959587950A94E2F73F
:1005800080FFF6CF0484F585E02D6083089584E034
:1005900091E090938F0180938E018AE091E0909397
:1005A00091018093900185EC90E09093930180936A
:1005B000920184EC90E0909395018093940180ECFB
:1005C00090E0909397018093960181EC90E0909356
:1005D00099018093980186EC90E090939B01809321
:1005E0009A0184E080939C0183E080939D0187E0E1
:1005F00080939E0185E080939F0181E08093A0011C
:1006000008950E9487030E94C2000E948C00FDCFC3
:100610000F931F93CF93DF938C01EB0109C02196B9
:10062000D801ED91FC910190F081E02DC801099570
:1006300068816623A1F7DF91CF911F910F910895F3
:10064000EF92FF920F931F93CF93DF938C017B0167
:10065000EA010CC0D7016D917D01D801ED91FC91AB
:100660000190F081E02DC80109952197209791F71D
:10067000DF91CF911F910F91FF90EF9008951F92FE
:100680000F920FB60F9211242F933F938F939F9346
:10069000AF93BF938091A5019091A601A091A7016E
:1006A000B091A8013091A9010196A11DB11D232F80
:1006B0002D5F2D3720F02D570196A11DB11D2093E0
:1006C000A9018093A5019093A601A093A701B093DF
:1006D000A8018091A1019091A201A091A301B091E4
:1006E000A4010196A11DB11D8093A1019093A201C7
:1006F000A093A301B093A401BF91AF919F918F915B
:100700003F912F910F900FBE0F901F9018957894E6
:1007100084B5826084BD84B5816084BD85B5826006
:1007200085BD85B5816085BDEEE6F0E080818160A4
:100730008083E1E8F0E08081826080838081816055
:100740008083E0E8F0E0808181608083E1EBF0E08D
:10075000808184608083E0EBF0E080818160808331
:10076000EAE7F0E08081846080838081826080831A
:100770008081816080838081806880831092C10045
:100780000895629FD001739FF001829FE00DF11DDB
:10079000649FE00DF11D929FF00D839FF00D749FFB
:1007A000F00D659FF00D9927729FB00DE11DF91FA7
:1007B000639FB00DE11DF91FBD01CF011124089504
:1007C00097FB092E07260AD077FD04D049D006D022
:1007D00000201AF4709561957F4F0895F6F7909573
:1007E00081959F4F0895A1E21A2EAA1BBB1BFD0104
:1007F0000DC0AA1FBB1FEE1FFF1FA217B307E40700
:10080000F50720F0A21BB30BE40BF50B661F771F57
:10081000881F991F1A9469F7609570958095909537
:100820009B01AC01BD01CF01089597FB092E052660
:100830000ED057FD04D0D7DF0AD0001C38F45095F5
:100840004095309521953F4F4F4F5F4F0895F6F7F4
:1008500090958095709561957F4F8F4F9F4F08952C
:10086000AA1BBB1B51E107C0AA1FBB1FA617B707D6
:1008700010F0A61BB70B881F991F5A95A9F78095F2
:100880009095BC01CD010895EE0FFF1F0590F491E6
:08089000E02D0994F894FFCF5C
:0A08980000000000B4020803200372
:00000001FF
